:1000000002C10000E7C60000BAC600008DC60000AD
:1000100060C6000033C6000006C60000D9C5000057
:10002000ACC5000020C100001EC100001CC10000C2
:100030001AC1000018C1000016C1000014C1000060
:1000400012C10000F2C600000EC100000CC1000089
:100050000AC1000008C1000006C1000044C500003C
:1000600002C100000AC50000DFC40000FCC000009F
:10007000FAC00000F8C00000F6C00000F4C00000A4
:10008000F2C00000F0C00000EEC00000ECC00000B4
:10009000EAC00000E8C00000E6C00000E4C00000C4
:1000A000E2C00000E0C00000DEC00000DCC00000D4
:1000B000DAC00000D8C00000D6C00000D4C00000E4
:1000C000D2C00000D0C00000CEC00000CCC00000F4
:1000D000CAC00000C8C00000C6C00000C4C0000004
:1000E000C2C0000000002100240027002A002D00CB
:1000F0003000330001010000040107010A01000083
:100100000A0B02090C0D0E08070304010000000091
:1001100000000000000000000000000000000000DF
:10012000000000000000000000001211100000009C
:1001300000000000000000000000000000000000BF
:100140000000000000002200250028002B002E00E7
:100150003100340002010000050108010B0100001C
:1001600020002300260029002C002F00320000016F
:10017000000003010601090105050505070508083A
:100180000808020202020A0A080804040404010121
:100190000101010101010303030303030303040736
:1001A00007070C0C0C0C0C0C0C0C020202020606CD
:1001B0000606060606060B0B0B0B0B0B0B0B0102C0
:1001C0001020200808102040102040800201020169
:1001D0000804020101020408102040808040201021
:1001E000080402018004020180402010080402017A
:1001F00008040201010204081020408001020408E2
:1002000010204080A50911241FBECFEFD1E2DEBF30
:10021000CDBF00E00CBF2CE0A0EAB2E001C01D920F
:10022000A73BB207E1F712E0A0E0B2E0EEE2F4E1B2
:1002300000E00BBF02C007900D92A03AB107D9F7BA
:1002400011E0C3E0D1E000E006C021970109802F52
:10025000FE010E940D0AC230D10780E00807A9F70D
:1002600043D60C94150ACCCEAF92BF92CF92DF92B8
:10027000EF92FF920F931F93CF93DF936C017B015B
:100280008B01040F151FEB015E01AE18BF08C017EC
:10029000D10759F06991D601ED91FC910190F0815F
:1002A000E02DC6011995892B79F7C501DF91CF9112
:1002B0001F910F91FF90EF90DF90CF90BF90AF9084
:1002C0000895FC01538D448D252F30E0842F90E05C
:1002D000821B930B541710F0CF9608950197089541
:1002E000FC01918D828D981761F0A28DAE0FBF2F0A
:1002F000B11D5D968C91928D9F5F9F73928F90E060
:1003000008958FEF9FEF0895FC01918D828D9817CE
:1003100031F0828DE80FF11D858D90E008958FEF0B
:100320009FEF08952FB7F8948091160C9091170CB9
:10033000A091180CB091190C2FBF8093220C9093B0
:10034000230CA093240CB093250C8AE19CE0DCDF05
:1003500097FF26C02FB7F8948091160C9091170C38
:10036000A091180CB091190C2FBF4091220C509104
:10037000230C6091240C7091250C841B950BA60B0B
:10038000B70B40911E0C50911F0C6091200C709186
:10039000210C84179507A607B707B8F28FEF9FEFD8
:1003A0000895CF92DF92EF92FF92CF93BBDFFC01D3
:1003B00097FD4AC08D32910521F0C0970A9708F049
:1003C0003DC0C12CD12C7601C0E0E130F105C9F06F
:1003D000ED32F105B9F1CF01C0970A9790F4AAE088
:1003E000B0E0A7019601DED76F01FF0FEE08FF080E
:1003F000C60ED71EE81EF91E80E3C81AD108E10810
:10040000F1088AE19CE06CDF8DDFFC01C0970A9760
:10041000E0F2E130F105C9F2CC2341F0F094E09430
:10042000D094C094C11CD11CE11CF11CC701B601C1
:10043000CF91FF90EF90DF90CF9008958AE19CE0FC
:100440004FDFB4CFC1E0DDCFC12CD12C7601EECF90
:10045000FC01918D228D892F90E0805C9F4F821B43
:1004600091098F73992708958AE19CE0F1DF21E0DB
:10047000892B09F420E0822F0895FC01A48DA80F98
:10048000B92FB11DA35ABF4F2C91848D90E00196D6
:100490008F739927848FA689B7892C93A089B189F6
:1004A0008C91837080648C93938D848D981306C097
:1004B0000288F389E02D80818F7D80830895EF92FB
:1004C000FF920F931F93CF93DF93EC0181E0888F0E
:1004D0009B8D8C8D98131AC0E889F989808185FFDE
:1004E00015C09FB7F894EE89FF896083E889F98980
:1004F00080818370806480839FBF81E090E0DF9182
:10050000CF911F910F91FF90EF900895F62E0B8DD4
:1005100010E00F5F1F4F0F731127E02E8C8D8E118F
:100520000BC00FB607FCFACFE889F989808185FFF7
:10053000F5CFCE01A2DFF2CFEB8DEC0FFD2FF11D39
:10054000E35AFF4FF0829FB7F8940B8FEA89FB893B
:1005500080818062D0CFCF93DF93EC01888D882398
:10056000B1F0AA89BB89E889F9898C9185FD03C01E
:10057000808186FD0CC00FB607FCF7CF8C9185FFFC
:10058000F2CF808185FFEDCFCE0177DFEACFDF911B
:10059000CF91089580E090E0892B21F065DF8111F3
:1005A0000E94000080E090E0892B49F080E090E01C
:1005B000892B29F00E94000081110E94000080E038
:1005C00090E0892B49F080E090E0892B29F00E948F
:1005D000000081110E94000080E090E0892B49F02A
:1005E00080E090E0892B29F00E94000081110C949A
:1005F00000000895282F30E0F901E250FF4F949158
:10060000F901E254FE4F449128583E4FF9012491DC
:10061000222309F434C0992309F191509231F0F466
:10062000E92FF0E08827E95EFC4F8F4FF6C64803BC
:100630004C032903400344032E034F03550359037E
:100640005F03630367036D0371032E0375037B036D
:100650007F03809180008F7780938000E22FF0E00D
:10066000EE0FFF1FEC5BFE4FA591B4918FB7F8948E
:10067000EC91611148C040954E234C938FBF089573
:10068000809180008F7DE8CF80918000877FE4CFCC
:1006900084B58F7784BDE2CF84B58F7DFBCF809109
:1006A000B0008F778093B000D9CF8091B0008F7D5C
:1006B000F9CF809190008F7780939000CFCF809179
:1006C00090008F7DF9CF80919000877FF5CF80914A
:1006D000A0008F778093A000C1CF8091A0008F7D74
:1006E000F9CF8091A000877FF5CF809120018F778F
:1006F00080932001B3CF809120018F7DF9CF80912D
:100700002001877FF5CF4E2BB8CFCF93DF9390E0BA
:10071000FC01E254FE4F249188589E4FFC018491C5
:100720008823D1F090E0880F991FFC01EC51FF4F16
:10073000A591B491FC01EC5BFE4FC591D491623060
:1007400071F49FB7F8943C91822F809583238C930A
:10075000E8812E2B28839FBFDF91CF9108958FB71B
:10076000F894EC912E2B2C938FBFF6CF3FB7F894D3
:100770008091E7089091E808A091E908B091EA0813
:1007800026B5A89B05C02F3F19F00196A11DB11DEC
:100790003FBFBA2FA92F982F8827BC01CD01620F28
:1007A000711D811D911D42E0660F771F881F991FE3
:1007B0004A95D1F70895CF92DF92EF92FF920F936F
:1007C0001F93CF93DF93D2DF6B017C018091E2080E
:1007D0009091E308A091E408B091E508A701960183
:1007E000281B390B4A0B5B0BDA01C90185359105D2
:1007F000A105B105A8F4C092E208D092E308E09206
:10080000E408F092E5081092E1081092E008DF9108
:10081000CF911F910F91FF90EF90DF90CF900895AF
:10082000C091E008D091E108873F39E09307A10526
:10083000B10528F5C03243E0D40728F50091000245
:10084000109101020C0F1D1FBC01CD016B5F7F4F8A
:100850008F4F9F4F2AE030E040E050E0BCD5F801D8
:100860002083C092E208D092E308E092E408F0927C
:10087000E5082196D093E108C093E008C8CFC531C0
:10088000D10508F4B8CF8091120290911302209103
:1008900000023091010230931302209312029093D0
:1008A000010280930002D093F208C093F10881E026
:1008B0008093F008A0CF8F929F92AF92BF92CF9279
:1008C000DF92EF92FF926B017C0150DF4B015C01E4
:1008D000C114D104E104F104B1F048DF68197909C9
:1008E0008A099B09683E73408105910588F321E0E0
:1008F000C21AD108E108F10888EE880E83E0981E3C
:10090000A11CB11CE5CFFF90EF90DF90CF90BF907E
:10091000AF909F908F9008950895FC010190002062
:10092000E9F73197AF01481B590BBC018AE19CE004
:100930009BCC8F929F92AF92BF920F931F93CF93B6
:10094000DF93CDB7DEB7A1970FB6F894DEBF0FBE29
:10095000CDBF19A2423008F44AE08E010F5D1F4F4F
:10096000842E912CB12CA12CA501940134D5E62F15
:10097000B901CA01EA30ECF4E05DD801EE938D01D3
:10098000232B242B252B81F790E080E0109711F08A
:10099000CD01C3DFA1960FB6F894DEBF0FBECDBF69
:1009A000DF91CF911F910F91BF90AF909F908F904B
:1009B0000895E95CE2CFCF93DF93AFDFEC0186E2ED
:1009C00092E0ABDF8C0F9D1FDF91CF910895CF9206
:1009D000DF92EF92FF92CF93DF936C01990FEE08B5
:1009E000FF08F7FE17C06DE28AE19CE068DDEC01CC
:1009F00066277727CB016C197D098E099F094AE08C
:100A000098DF8C0F9D1FDF91CF91FF90EF90DF90CB
:100A1000CF9008954AE0C701B601DF91CF91FF90D2
:100A2000EF90DF90CF9085CF1F920F920FB60F926D
:100A300011240BB60F922F933F934F935F936F93B5
:100A40007F938F939F93AF93BF93EF93FF938AE12D
:100A50009CE013DDFF91EF91BF91AF919F918F913A
:100A60007F916F915F914F913F912F910F900BBEAE
:100A70000F900FBE0F901F9018951F920F920FB6F8
:100A80000F9211240BB60F922F938F939F93EF9396
:100A9000FF93E0912A0CF0912B0C8081E091300CB7
:100AA000F091310C82FD1DC090818091330C8F5FDD
:100AB0008F732091340C821741F0E091330CF0E0F9
:100AC000E65EF34F958F8093330CFF91EF919F91EA
:100AD0008F912F910F900BBE0F900FBE0F901F9014
:100AE00018958081F2CF1F920F920FB60F921124AA
:100AF0002F933F938F939F93AF93BF938091160C47
:100B00009091170CA091180CB091190C3091E60837
:100B100023E0230F2D3758F50196A11DB11D209319
:100B2000E6088093160C9093170CA093180CB093C2
:100B3000190C8091E7089091E808A091E908B0911C
:100B4000EA080196A11DB11D8093E7089093E8087B
:100B5000A093E908B093EA08BF91AF919F918F915C
:100B60003F912F910F900FBE0F901F90189526E880
:100B7000230F0296A11DB11DD2CF1F920F920FB667
:100B80000F9211240BB60F922F933F934F935F93C5
:100B90006F937F938F939F93AF93BF93EF93FF9345
:100BA000E0911002F09111021995FF91EF91BF9120
:100BB000AF919F918F917F916F915F914F913F91F5
:100BC0002F910F900BBE0F900FBE0F901F90189596
:100BD0001F920F920FB60F9211240BB60F922F9304
:100BE0003F934F935F936F937F938F939F93AF93B5
:100BF000BF93EF93FF93E0910E02F0910F021995CE
:100C0000FF91EF91BF91AF919F918F917F916F91E4
:100C10005F914F913F912F910F900BBE0F900FBEA0
:100C20000F901F9018951F920F920FB60F921124DC
:100C30000BB60F922F933F934F935F936F937F93D6
:100C40008F939F93AF93BF93EF93FF93E091040231
:100C5000F09105021995FF91EF91BF91AF919F918E
:100C60008F917F916F915F914F913F912F910F9055
:100C70000BBE0F900FBE0F901F9018951F920F92F2
:100C80000FB60F9211240BB60F922F933F934F93F1
:100C90005F936F937F938F939F93AF93BF93EF93E4
:100CA000FF93E0910202F09103021995FF91EF91F9
:100CB000BF91AF919F918F917F916F915F914F9174
:100CC0003F912F910F900BBE0F900FBE0F901F9072
:100CD00018951F920F920FB60F9211240BB60F9218
:100CE0002F933F934F935F936F937F938F939F9334
:100CF000AF93BF93EF93FF93E0910C02F0910D023D
:100D00001995FF91EF91BF91AF919F918F917F9135
:100D10006F915F914F913F912F910F900BBE0F906C
:100D20000FBE0F901F9018951F920F920FB60F9243
:100D300011240BB60F922F933F934F935F936F93B2
:100D40007F938F939F93AF93BF93EF93FF93E09124
:100D50000A02F0910B021995FF91EF91BF91AF91AB
:100D60009F918F917F916F915F914F913F912F91C3
:100D70000F900BBE0F900FBE0F901F9018951F92F3
:100D80000F920FB60F9211240BB60F922F933F9331
:100D90004F935F936F937F938F939F93AF93BF9383
:100DA000EF93FF93E0910802F09109021995FF91EA
:100DB000EF91BF91AF919F918F917F916F915F91D3
:100DC0004F913F912F910F900BBE0F900FBE0F9040
:100DD0001F9018951F920F920FB60F9211240BB609
:100DE0000F922F933F934F935F936F937F938F93C4
:100DF0009F93AF93BF93EF93FF93E0910602F0911F
:100E000007021995FF91EF91BF91AF919F918F913B
:100E10007F916F915F914F913F912F910F900BBEFA
:100E20000F900FBE0F901F9018951F920F920FB644
:100E30000F9211240BB60F922F938F939F93AF9322
:100E4000BF93EF93FF93E091EE08F091EF08309796
:100E5000E9F480916F008D7F80936F00E091EC0842
:100E6000F091ED0890818091EB0880958923808333
:100E7000FF91EF91BF91AF919F918F912F910F9023
:100E80000BBE0F900FBE0F901F901895808181119F
:100E900014C080916F008D7F80936F00E091EC080B
:100EA000F091ED0890818091EB08809589238083F3
:100EB0001092EF081092EE08DBCFA091EC08B091F1
:100EC000ED089C912091EB0892279C9324E1829F4E
:100ED000C001112490938900809388003196F0938B
:100EE000EF08E093EE08C4CF789484B5826084BDA7
:100EF00084B5816084BD85B5826085BD85B581601E
:100F000085BD80916E00816080936E00109281009B
:100F10008091810082608093810080918100816056
:100F20008093810080918000816080938000809117
:100F3000B10084608093B1008091B00081608093A3
:100F4000B000809191008260809391008091910027
:100F500081608093910080919000816080939000E7
:100F60008091A10082608093A1008091A1008160A6
:100F70008093A1008091A00081608093A000809167
:100F80002101826080932101809121018160809301
:100F900021018091200181608093200180917A005D
:100FA000846080937A0080917A00826080937A00D6
:100FB00080917A00816080937A0080917A008068C5
:100FC00080937A001092C100E0912A0CF0912B0CD2
:100FD00082E08083E0912A0CF0912B0C1082E0914A
:100FE000260CF091270C1082E091280CF091290C2E
:100FF00080E180831092320CE0912E0CF0912F0C46
:1010000086E08083E0912C0CF0912D0C8081806132
:101010008083E0912C0CF0912D0C8081886080837E
:10102000E0912C0CF0912D0C808180688083E09100
:101030002C0CF0912D0C80818F7D808388EC90E0CA
:10104000A0E0B0E080931E0C90931F0CA093200CA6
:10105000B093210CE1EDF1E0E491EBE8F1E0E491F3
:10106000F0E0EE0FFF1FE25AFE4F85919491ECECF9
:10107000F1E0E491E093EB08E6E8F1E0E491F0E0E0
:10108000EE0FFF1FEC5BFE4F859194919093ED085E
:101090008093EC0861E086E138DB61E08FE035DBCE
:1010A00062E083E132DB61E08EE02FDB60E086E12D
:1010B000A1DA60E08FE09EDA60E083E19BDA60E035
:1010C0008EE098DA8BEC97E00197F1F7F8941092A4
:1010D000800010928100809181008F7E809381003A
:1010E00080918100886080938100809181008B7F56
:1010F0008093810080918100826080938100809143
:1011000081008E7F8093810078948BED93E09093A3
:101110000B0280930A02809169008F7C806180932A
:101120006900EA9A61E086E165DA0BE410E0C80143
:101130000197F1F761E08FE05DDACBE1D3E0CE011A
:101140000197F1F760E08FE055DA8BE990E00197C5
:10115000F1F760E086E14EDAC8010197F1F761E04E
:1011600086E148DA2197F1F789E292E0D6DB88E35D
:1011700092E021DC8EE392E0D0DB8AE090E027DC95
:1011800083E592E018DC2BE4222E312C3BEC432E3D
:1011900037E0532E45EF642E48E0742E8AE19CE040
:1011A00057D9892B09F49DC08AE19CE099D88437EE
:1011B00009F097C0F6D803EF18E0D0E0C0E0F801DE
:1011C00016161706180619064CF4C03223E0D2078B
:1011D00029F061938F012196E4D8F1CF1082E0903D
:1011E000F308F12C8090F40860E083E103DA61E019
:1011F0008FE000DA10E000E06701F1E0CF1AD108DB
:10120000912CB12CA12C0E151F0594F5F894109279
:1012100085001092840088EE93E09093890080937B
:1012200088007092EF086092EE08E091EC08F0916F
:10123000ED0890818091EB088095892380838091CF
:101240006F00826080936F00789480916F0081FFBF
:1012500006C061E070E080E090E02DDBF6CF0C1579
:101260001D051CF4C501B40126DB0F5F1F4FCBCF5A
:1012700060E08FE0BFD98BE990E00197F1F760E083
:1012800086E1B8D9C1010197F1F761E086E1B2D9F1
:1012900060E08EE0AFD9C2010197F1F782E692E0FB
:1012A0003CDBCE01029793DB82E792E084DB8AE7A6
:1012B00092E033DB6091F30870E090E080E04AE078
:1012C00038DB86E292E029DB86E892E026DB60915B
:1012D000F40870E090E080E04AE02BDB87E992E0E0
:1012E0006ADBF8940091F1081091F208E090120284
:1012F000F09013028091F0081092F00878948823FF
:1013000011F18BE992E009DBC80161DB6AE38AE154
:101310009CE0D5D8E701F12CE12C0150110969912D
:1013200070E090E080E04AE0E016F10644F401DB72
:101330008EE992E0F2DA9FEFE91AF90AF0CFF9DAD2
:1013400086E292E0EADA26D929CFEAE1FCE01382CC
:10135000128288EE93E0A0E0B0E084839583A683B8
:10136000B78388E192E09183808385EC90E0958754
:10137000848784EC90E09787868780EC90E0918B5F
:10138000808B81EC90E0938B828B82EC90E0958B4C
:10139000848B86EC90E0978B868B118E128E138E49
:1013A000148E089509D0A59F900DB49F900DA49F11
:1013B000800D911D11240895A29FB001B39FC0011B
:1013C000A39F700D811D1124911DB29F700D811D71
:1013D0001124911D0895A1E21A2EAA1BBB1BFD0129
:1013E0000DC0AA1FBB1FEE1FFF1FA217B307E40704
:1013F000F50720F0A21BB30BE40BF50B661F771F5C
:10140000881F991F1A9469F760957095809590953B
:101410009B01AC01BD01CF010895EE0FFF1F881F96
:0E1420008BBF0790F691E02D1994F894FFCF42
:10142E00C0058C048C048C048C048C048C048C04F9
:10143E008C04A002000000005F0234016101AB02C7
:10144E002802700184010D0A00693A52464C696EF9
:10145E006B2D616C74207600302E302E3300693A7D
:10146E0050756C73652074696D6562617365206972
:10147E00732000206D6963726F7365636F6E6473A2
:10148E002E00693A5472616E736D69747465643AB4
:10149E0020002070756C73657300693A5265706533
:1014AE006174733A2000693A526570656174206404
:1014BE00656C61793A2000206D7300723A002C0041
:00000001FF
