:100000000C9439010C9450070C9425070C94FA06B3
:100010000C94CF060C94A4060C9479060C944E060E
:100020000C9423060C946A010C946A010C946A01E6
:100030000C946A010C946A010C946A010C946A0194
:100040000C946A010C947B070C946A010C946A016D
:100050000C946A010C946A010C946A010C94D90501
:100060000C946A010C94A3050C9479050C946A0114
:100070000C946A010C946A010C946A010C946A0154
:100080000C946A010C946A010C946A010C946A0144
:100090000C946A010C946A010C946A010C946A0134
:1000A0000C946A010C946A010C946A010C946A0124
:1000B0000C946A010C946A010C946A010C946A0114
:1000C0000C946A010C946A010C946A010C946A0104
:1000D0000C946A010C946A010C946A010C946A01F4
:1000E0000C946A010C94BC010C941E040C949203B1
:1000F0000C948F030C94B8030C94BE030C948703E8
:100100000C949C030C9471030C94B0030C9498030E
:100110000C94A2030C94A8010C94E0040C946602C5
:100120000C94EB020C946C010C94B4030C948B03B0
:100130000C9483030C94670A0C94A6030C94C203DA
:100140000C9499010C949E020C94AA030C946C03D9
:1001500000002100240027002A002D003000330079
:1001600001010000040107010A0100000A0B020955
:100170000C0D0E0807030401000000000000000041
:10018000000000000000000000000000000000006F
:10019000000000000000121110000000000000002C
:1001A000000000000000000000000000000000004F
:1001B00000002200250028002B002E003100340012
:1001C00002010000050108010B01000020002300CE
:1001D000260029002C002F0032000001000003013E
:1001E00006010901050505050705080808080202BA
:1001F00002020A0A080804040404010101010101C1
:1002000001010303030303030303040707070C0CA3
:100210000C0C0C0C0C0C020202020606060606066A
:1002200006060B0B0B0B0B0B0B0B0102102020080F
:100230000810204010204080020102010804020141
:1002400001020408102040808040201008040201B0
:100250008004020180402010080402010804020109
:100260000102040810204080010204081020408090
:10027000670A11241FBECFEFD1E2DEBFCDBF00E081
:100280000CBF26E1A6EDB2E001C01D92A335B20776
:10029000E1F712E0A0E0B2E0E4EBF5E100E00BBF33
:1002A00002C007900D92A63DB107D9F711E0C9E34E
:1002B000D1E000E006C021970109802FFE010E94D5
:1002C000D00AC833D10780E00807A9F70E94E207E7
:1002D0000C94D80A0C940000AF92BF92CF92DF9298
:1002E000EF92FF920F931F93CF93DF936C017B01EB
:1002F0008B01040F151FEB015E01AE18BF08C0177C
:10030000D10759F06991D601ED91FC910190F081EE
:10031000E02DC6011995892B79F7C501DF91CF91A1
:100320001F910F91FF90EF90DF90CF90BF90AF9013
:100330000895FC01538D448D252F30E0842F90E0EB
:10034000821B930B541710F0CF96089501970895D0
:10035000FC01918D828D981761F0A28DAE0FBF2F99
:10036000B11D5D968C91928D9F5F9F73928F90E0EF
:1003700008958FEF9FEF0895FC01918D828D98175E
:1003800031F0828DE80FF11D858D90E008958FEF9B
:100390009FEF08952FB7F8948091B2159091B315FF
:1003A000A091B415B091B5152FBF8093BE15909351
:1003B000BF15A093C015B093C11586EB95E10E94BF
:1003C000BC0197FF26C02FB7F8948091B215909189
:1003D000B315A091B415B091B5152FBF4091BE15BE
:1003E0005091BF156091C0157091C115841B950B7C
:1003F000A60BB70B4091BA155091BB156091BC1577
:100400007091BD1584179507A607B707B0F28FEF57
:100410009FEF0895CF92DF92EF92FF92CF930E94C9
:10042000CA01FC0197FD4EC08D32910521F0C097A5
:100430000A9708F040C0C12CD12C7601C0E0E13011
:10044000F105D1F0ED32F105D9F1CF01C0970A974E
:1004500098F4AAE0B0E0A70196010E94940A6F0107
:10046000FF0FEE08FF08C60ED71EE81EF91E80E338
:10047000C81AD108E108F10886EB95E10E94A801AD
:100480000E94CA01FC01C0970A97C8F2E130F10549
:10049000B1F2CC2341F0F094E094D094C094C11C0C
:1004A000D11CE11CF11CC701B601CF91FF90EF9068
:1004B000DF90CF90089586EB95E10E94A801AFCF21
:1004C000C1E0DACFC12CD12C7601EDCFFC01918DAA
:1004D000228D892F90E0805C9F4F821B91098F7342
:1004E0009927089586EB95E10E94660221E0892B09
:1004F00009F420E0822F0895FC01A48DA80FB92FE4
:10050000B11DA35ABF4F2C91848D90E001968F733B
:100510009927848FA689B7892C93A089B1898C915A
:10052000837080648C93938D848D981306C00288A9
:10053000F389E02D80818F7D80830895EF92FF9273
:100540000F931F93CF93DF93EC0181E0888F9B8DF6
:100550008C8D98131AC0E889F989808185FF15C0B0
:100560009FB7F894EE89FF896083E889F9898081D3
:100570008370806480839FBF81E090E0DF91CF91A2
:100580001F910F91FF90EF900895F62E0B8D10E0C4
:100590000F5F1F4F0F731127E02E8C8D8E110CC033
:1005A0000FB607FCFACFE889F989808185FFF5CF7E
:1005B000CE010E947C02F1CFEB8DEC0FFD2FF11DDF
:1005C000E35AFF4FF0829FB7F8940B8FEA89FB89BB
:1005D00080818062CFCFCF93DF93EC01888D882319
:1005E000B9F0AA89BB89E889F9898C9185FD03C096
:1005F000808186FD0DC00FB607FCF7CF8C9185FF7B
:10060000F2CF808185FFEDCFCE010E947C02E9CF41
:10061000DF91CF91089580E090E0892B29F00E942E
:10062000720281110E94000080E090E0892B49F065
:1006300080E090E0892B29F00E94000081110E9447
:10064000000080E090E0892B49F080E090E0892B69
:1006500029F00E94000081110E94000080E090E0DB
:10066000892B49F080E090E0892B29F00E9400005E
:1006700081110C9400000895282F30E0F901E6590B
:10068000FE4F9491F901E65DFD4F44912C513E4F90
:10069000F9012491222309F435C0992311F19150D5
:1006A0009231F8F4E92FF0E08827E65AFC4F8F4F9B
:1006B0000C94D00A8B038F036C03830387037103AD
:1006C000920398039C03A203A603AA03B003B403F6
:1006D0007103B803BE03C203809180008F778093BB
:1006E0008000E22FF0E0EE0FFF1FE055FE4FA591D6
:1006F000B4918FB7F894EC91611148C040954E23A6
:100700004C938FBF0895809180008F7DE8CF8091BA
:100710008000877FE4CF84B58F7784BDE2CF84B536
:100720008F7DFBCF8091B0008F778093B000D9CFC1
:100730008091B0008F7DF9CF809190008F7780936A
:100740009000CFCF809190008F7DF9CF8091900065
:10075000877FF5CF8091A0008F778093A000C1CFD5
:100760008091A0008F7DF9CF8091A000877FF5CF89
:10077000809120018F7780932001B3CF8091200159
:100780008F7DF9CF80912001877FF5CF4E2BB8CF99
:10079000CF93DF9390E0FC01E65DFD4F24918C51F7
:1007A0009E4FFC0184918823D1F090E0880F991F1F
:1007B000FC01E05BFE4FA591B491FC01E055FE4FBA
:1007C000C591D491623071F49FB7F8943C91822F17
:1007D000809583238C93E8812E2B28839FBFDF9104
:1007E000CF9108958FB7F894EC912E2B2C938FBF57
:1007F000F6CF3FB7F89480915D0F90915E0FA09176
:100800005F0FB091600F26B5A89B05C02F3F19F070
:100810000196A11DB11D3FBFBA2FA92F982F882780
:10082000BC01CD01620F711D811D911D42E0660F5B
:10083000771F881F991F4A95D1F70895CF92DF92AD
:10084000EF92FF920F931F93CF93DF930E94F903D0
:100850006B017C018091580F9091590FA0915A0F14
:10086000B0915B0FA7019601281B390B4A0B5B0B5C
:10087000DA01C90185359105A105B105A8F4C09239
:10088000580FD092590FE0925A0FF0925B0F1092CE
:10089000570F1092560FDF91CF911F910F91FF903C
:1008A000EF90DF90CF900895C091560FD091570FE1
:1008B000813737E19307A105B10550F5C03243E018
:1008C000D40750F59E01220F331F009100021091B2
:1008D0000102020F131FBC01CD016B5F7F4F8F4FD1
:1008E0009F4F2AE030E040E050E00E94AE0AF8015D
:1008F00031832083C092580FD092590FE0925A0F43
:10090000F0925B0F2196D093570FC093560FC3CF31
:10091000C031D10508F4B3CF809112029091130237
:1009200020910002309101023093130220931202B1
:100930009093010280930002D0936B0FC0936A0FD3
:1009400081E08093690FE091610FF091620F8081E7
:100950009091630F8927808392CF8F929F92AF925D
:10096000BF92CF92DF92EF92FF926B017C010E94C7
:10097000F9034B015C01C114D104E104F104B9F0A5
:100980000E94F903681979098A099B09683E734036
:100990008105910580F321E0C21AD108E108F10830
:1009A00088EE880E83E0981EA11CB11CE4CFFF9056
:1009B000EF90DF90CF90BF90AF909F908F90089571
:1009C0000895FC0101900020E9F73197AF01481B21
:1009D000590BBC0186EB95E10C946C01CF93DF932E
:1009E0000E94E104EC0186E292E00E94E1048C0F97
:1009F0009D1FDF91CF9108958F929F92AF92BF92EA
:100A0000CF92DF92EF92FF920F931F93CF93DF93DA
:100A1000CDB7DEB7A1970FB6F894DEBF0FBECDBF3E
:100A20006C01990FEE08FF08F7FE41C06DE286EBFE
:100A300095E10E949E028C0122273327A9012C19DF
:100A40003D094E095F0919A2CE0181967C019AE009
:100A5000892E912CA12CB12CCA01B901A5019401B8
:100A60000E94AE0A605DF70162937F012115310596
:100A70004105510589F790E080E0309719F0CF01EA
:100A80000E94E104800F911FA1960FB6F894DEBF7B
:100A90000FBECDBFDF91CF911F910F91FF90EF90CF
:100AA000DF90CF90BF90AF909F908F900895A70157
:100AB000960119A28E010F5D1F4F8AE0C82ED12C1E
:100AC000E12CF12CCA01B901A70196010E94AE0ADE
:100AD000605DF80162938F012115310541055105D3
:100AE00089F790E080E0309779F2CF010E94E1042D
:100AF000CBCF1F920F920FB60F9211240BB60F920D
:100B00002F933F934F935F936F937F938F939F9315
:100B1000AF93BF93EF93FF9386EB95E10E947C0226
:100B2000FF91EF91BF91AF919F918F917F916F91C5
:100B30005F914F913F912F910F900BBE0F900FBE81
:100B40000F901F9018951F920F920FB60F921124BD
:100B50000BB60F922F938F939F93EF93FF93E09198
:100B6000C615F091C7158081E091CC15F091CD1597
:100B700082FD1DC090818091CF158F5F8F73209172
:100B8000D015821741F0E091CF15F0E0EA54FA4E0B
:100B9000958F8093CF15FF91EF919F918F912F911A
:100BA0000F900BBE0F900FBE0F901F901895808175
:100BB000F2CF1F920F920FB60F9211242F933F93F3
:100BC0008F939F93AF93BF938091B2159091B3157C
:100BD000A091B415B091B51530915C0F23E0230FAF
:100BE0002D3758F50196A11DB11D20935C0F809300
:100BF000B2159093B315A093B415B093B515809129
:100C00005D0F90915E0FA0915F0FB091600F019604
:100C1000A11DB11D80935D0F90935E0FA0935F0F98
:100C2000B093600FBF91AF919F918F913F912F91A2
:100C30000F900FBE0F901F90189526E8230F029675
:100C4000A11DB11DD2CF1F920F920FB60F9211248A
:100C50000BB60F922F933F934F935F936F937F93B6
:100C60008F939F93AF93BF93EF93FF93E091100205
:100C7000F09111021995FF91EF91BF91AF919F9162
:100C80008F917F916F915F914F913F912F910F9035
:100C90000BBE0F900FBE0F901F9018951F920F92D2
:100CA0000FB60F9211240BB60F922F933F934F93D1
:100CB0005F936F937F938F939F93AF93BF93EF93C4
:100CC000FF93E0910E02F0910F021995FF91EF91C1
:100CD000BF91AF919F918F917F916F915F914F9154
:100CE0003F912F910F900BBE0F900FBE0F901F9052
:100CF00018951F920F920FB60F9211240BB60F92F8
:100D00002F933F934F935F936F937F938F939F9313
:100D1000AF93BF93EF93FF93E0910402F09105022C
:100D20001995FF91EF91BF91AF919F918F917F9115
:100D30006F915F914F913F912F910F900BBE0F904C
:100D40000FBE0F901F9018951F920F920FB60F9223
:100D500011240BB60F922F933F934F935F936F9392
:100D60007F938F939F93AF93BF93EF93FF93E09104
:100D70000202F09103021995FF91EF91BF91AF919B
:100D80009F918F917F916F915F914F913F912F91A3
:100D90000F900BBE0F900FBE0F901F9018951F92D3
:100DA0000F920FB60F9211240BB60F922F933F9311
:100DB0004F935F936F937F938F939F93AF93BF9363
:100DC000EF93FF93E0910C02F0910D021995FF91C2
:100DD000EF91BF91AF919F918F917F916F915F91B3
:100DE0004F913F912F910F900BBE0F900FBE0F9020
:100DF0001F9018951F920F920FB60F9211240BB6E9
:100E00000F922F933F934F935F936F937F938F93A3
:100E10009F93AF93BF93EF93FF93E0910A02F091FA
:100E20000B021995FF91EF91BF91AF919F918F9117
:100E30007F916F915F914F913F912F910F900BBEDA
:100E40000F900FBE0F901F9018951F920F920FB624
:100E50000F9211240BB60F922F933F934F935F93F2
:100E60006F937F938F939F93AF93BF93EF93FF9372
:100E7000E0910802F09109021995FF91EF91BF915D
:100E8000AF919F918F917F916F915F914F913F9122
:100E90002F910F900BBE0F900FBE0F901F901895C3
:100EA0001F920F920FB60F9211240BB60F922F9331
:100EB0003F934F935F936F937F938F939F93AF93E2
:100EC000BF93EF93FF93E0910602F091070219950B
:100ED000FF91EF91BF91AF919F918F917F916F9112
:100EE0005F914F913F912F910F900BBE0F900FBECE
:100EF0000F901F9018951F920F920FB60F9211240A
:100F00000BB60F922F933F934F938F939F93AF9373
:100F1000BF93EF93FF93E091670FF091680F3097C5
:100F2000F9F480916F008D7F80936F00E091650FE1
:100F3000F091660F90818091640F80958923808362
:100F4000FF91EF91BF91AF919F918F914F913F9101
:100F50002F910F900BBE0F900FBE0F901F90189502
:100F60002081318121153105A1F480916F008D7FA1
:100F700080936F00E091650FF091660F90818091F2
:100F8000640F8095892380831092680F1092670FF9
:100F9000D7CFA091650FB091660F8C919091640F9F
:100FA00089278C9344E1429FC001439F900D1124F7
:100FB00090938900809388003296F093680FE093B5
:100FC000670FBECF789484B5826084BD84B581609C
:100FD00084BD85B5826085BD85B5816085BD809104
:100FE0006E00816080936E0010928100809181007C
:100FF0008260809381008091810081608093810074
:10100000809180008160809380008091B100846035
:101010008093B1008091B00081608093B000809196
:101020009100826080939100809191008160809313
:101030009100809190008160809390008091A10048
:1010400082608093A1008091A10081608093A100C3
:101050008091A00081608093A00080912101826036
:1010600080932101809121018160809321018091F1
:10107000200181608093200180917A0084608093B8
:101080007A0080917A00826080937A0080917A0061
:10109000816080937A0080917A00806880937A00E2
:1010A0001092C100E091C615F091C71582E08083CF
:1010B000E091C615F091C7151082E091C215F0912C
:1010C000C3151082E091C415F091C51580E18083AD
:1010D0001092CE15E091CA15F091CB1586E0808371
:1010E000E091C815F091C915808180618083E091FD
:1010F000C815F091C915808188608083E091C8157A
:10110000F091C915808180688083E091C815F091C5
:10111000C91580818F7D808388EC90E0A0E0B0E0ED
:101120008093BA159093BB15A093BC15B093BD15D1
:10113000EDE3F2E0E491E7EFF1E0E491F0E0EE0FAF
:10114000FF1FE653FE4F85919491E8E3F2E0E491AE
:10115000E093640FE2EFF1E0E491F0E0EE0FFF1FA7
:10116000E055FE4F859194919093660F8093650FA3
:10117000E7E3F2E0C491C093630FE1EFF1E0E491A3
:10118000F0E0EE0FFF1FE055FE4F05911491109314
:10119000620F0093610F61E086E10E94C80361E085
:1011A0008FE00E94C80362E083E10E94C80361E00F
:1011B0008EE00E94C80361E08DE00E94C80360E0F9
:1011C00086E10E943C0360E08FE00E943C0360E007
:1011D00083E10E943C0360E08EE00E943C03D80162
:1011E0008C918C2B8C938BEC97E00197F1F7EC9121
:1011F000C095CE23CC93F894109280001092810079
:10120000809181008F7E8093810080918100886031
:1012100080938100809181008B7F809381008091F9
:101220008100826080938100809181008E7F809315
:10123000810078948EE194E090930B0280930A02EF
:10124000809169008F7C806180936900EA9A61E0F7
:1012500086E10E943C030BE410E0C8010197F1F71E
:1012600061E08FE00E943C03CBE1D3E0CE01019727
:10127000F1F760E08FE00E943C038BE990E001977A
:10128000F1F760E086E10E943C03C8010197F1F7A5
:1012900061E086E10E943C032197F1F789E292E048
:1012A0000E94E10488E392E00E94EE048EE392E063
:1012B0000E94E1048AE090E00E94FC0488E592E04C
:1012C0000E94EE0486E692E00E94EE043BE4232EA8
:1012D000312C4BEC442E47E0542E50E7652E5FE056
:1012E000752E86EB95E10E946602892B09F4B6C043
:1012F00086EB95E10E94A801843709F0AFC00E94F7
:101300000A020CE61FE0D0E0C0E016161706180629
:10131000190664F4C032B3E0DB0741F0F8016193D1
:1013200071938F0121960E940A02EFCFD8011D927E
:101330001C92E0906C0FF0906D0F80906E0F90906B
:101340006F0F60E083E10E943C0361E08FE00E9448
:101350003C0310E000E06701B1E0CB1AD108092C92
:10136000000CAA08BB080E151F05B4F5F8941092DE
:10137000850010928400E8EEF3E0F0938900E0939A
:1013800088007092680F6092670FE091650FF0918E
:10139000660F90818091640F80958923808380916E
:1013A0006F00826080936F007894F89480916F0052
:1013B000789481FF07C061E070E080E090E00E94D7
:1013C000AD04F3CF0C151D0524F4C501B4010E9432
:1013D000AD040F5F1F4FC7CF60E08FE00E943C035A
:1013E0008BE990E00197F1F760E086E10E943C0311
:1013F000C1010197F1F761E086E10E943C0360E0E2
:101400008EE00E943C03C2010197F1F788E992E067
:101410000E94E104CE0102970E94FC0488EA92E057
:101420000E94EE0480EB92E00E94E10480916C0F38
:1014300090916D0F0E94FC0486E292E00E94E1040C
:101440008CEB92E00E94E10480916E0F90916F0FFF
:101450000E94FC048DEC92E00E94EE04F89400914E
:101460006A0F10916B0FE0901202F09013028091BE
:10147000690F1092690F7894882331F181ED92E021
:101480000E94E104C8010E94FC046AE386EB95E136
:101490000E949E02E701F12CE12C01501109899173
:1014A0009991E016F10654F40E94FC0484ED92E058
:1014B0000E94E104FFEFEF1AFF0AF1CF0E94FC0443
:1014C00086E292E00E94E1040E940B030ACFE6EB61
:1014D000F5E11382128288EE93E0A0E0B0E084830D
:1014E0009583A683B78388E192E09183808385EC1E
:1014F00090E09587848784EC90E09787868780ECDE
:1015000090E0918B808B81EC90E0938B828B82ECCE
:1015100090E0958B848B86EC90E0978B868B118E78
:10152000128E138E148E08950E949F0AA59F900D0F
:10153000B49F900DA49F800D911D11240895A29F2A
:10154000B001B39FC001A39F700D811D1124911D97
:10155000B29F700D811D1124911D0895A1E21A2ED4
:10156000AA1BBB1BFD010DC0AA1FBB1FEE1FFF1F47
:10157000A217B307E407F50720F0A21BB30BE40B97
:10158000F50B661F771F881F991F1A9469F76095DE
:101590007095809590959B01AC01BD01CF01089598
:1015A000EE0FFF1F881F8BBF0790F691E02D199457
:0415B000F894FFCFDD
:1015B4001609E004E004E004E004E004E004E004CC
:1015C400E004D602000000009E026C019901EB02C7
:1015D4006602A801BC010D0A00693A52464C696EC4
:1015E4006B2D616C74207600302E302E3400693AF5
:1015F40050756C73652074696D65626173652F75D0
:101604006E69742069732000206D6963726F73655D
:10161400636F6E647300693A68747470733A2F2F41
:101624006769746875622E636F6D2F686172646395
:101634006F64656470617373776F72642F72666C24
:10164400696E6B2D616C7400693A5472616E736DCE
:1016540069747465643A20002070756C7365730056
:10166400693A526570656174733A2000693A52654B
:10167400706561742064656C61793A2000206D7333
:0616840000723A002C0088
:00000001FF
